{
  "contractName": "Provenance",
  "abi": [
    {
      "constant": true,
      "inputs": [],
      "name": "fileNumber",
      "outputs": [
        {
          "name": "",
          "type": "uint256"
        }
      ],
      "payable": false,
      "stateMutability": "view",
      "type": "function"
    },
    {
      "constant": true,
      "inputs": [
        {
          "name": "",
          "type": "uint256"
        },
        {
          "name": "",
          "type": "uint256"
        }
      ],
      "name": "stages",
      "outputs": [
        {
          "name": "operator",
          "type": "address"
        },
        {
          "name": "role",
          "type": "uint8"
        },
        {
          "name": "operateTime",
          "type": "uint256"
        },
        {
          "name": "opeate",
          "type": "uint8"
        },
        {
          "name": "data",
          "type": "string"
        }
      ],
      "payable": false,
      "stateMutability": "view",
      "type": "function"
    },
    {
      "constant": true,
      "inputs": [
        {
          "name": "",
          "type": "uint256"
        },
        {
          "name": "",
          "type": "uint256"
        }
      ],
      "name": "files",
      "outputs": [
        {
          "name": "fileID",
          "type": "uint256"
        },
        {
          "name": "fileName",
          "type": "string"
        },
        {
          "name": "fileType",
          "type": "string"
        },
        {
          "name": "fileSize",
          "type": "uint256"
        },
        {
          "name": "stageNumber",
          "type": "uint256"
        },
        {
          "name": "stageCount",
          "type": "uint256"
        }
      ],
      "payable": false,
      "stateMutability": "view",
      "type": "function"
    },
    {
      "anonymous": false,
      "inputs": [
        {
          "indexed": false,
          "name": "_fileNumber",
          "type": "uint256"
        },
        {
          "indexed": false,
          "name": "_stageNumber",
          "type": "uint256"
        },
        {
          "indexed": false,
          "name": "_creator",
          "type": "address"
        },
        {
          "indexed": false,
          "name": "_fileName",
          "type": "string"
        },
        {
          "indexed": false,
          "name": "_fileType",
          "type": "string"
        },
        {
          "indexed": false,
          "name": "_fileSize",
          "type": "uint256"
        },
        {
          "indexed": false,
          "name": "_data",
          "type": "string"
        }
      ],
      "name": "eventCreate",
      "type": "event"
    },
    {
      "anonymous": false,
      "inputs": [
        {
          "indexed": false,
          "name": "_fileNumber",
          "type": "uint256"
        },
        {
          "indexed": false,
          "name": "_stageNumber",
          "type": "uint256"
        },
        {
          "indexed": false,
          "name": "__editor",
          "type": "address"
        },
        {
          "indexed": false,
          "name": "_role",
          "type": "uint8"
        },
        {
          "indexed": false,
          "name": "_opeate",
          "type": "uint8"
        },
        {
          "indexed": false,
          "name": "_fileName",
          "type": "string"
        },
        {
          "indexed": false,
          "name": "_fileType",
          "type": "string"
        },
        {
          "indexed": false,
          "name": "_fileSize",
          "type": "uint256"
        },
        {
          "indexed": false,
          "name": "_data",
          "type": "string"
        }
      ],
      "name": "eventEdit",
      "type": "event"
    },
    {
      "constant": false,
      "inputs": [
        {
          "name": "_fileName",
          "type": "string"
        },
        {
          "name": "_fileType",
          "type": "string"
        },
        {
          "name": "_fileSize",
          "type": "uint256"
        },
        {
          "name": "_data",
          "type": "string"
        }
      ],
      "name": "Create",
      "outputs": [
        {
          "name": "_fileNumber",
          "type": "uint256"
        },
        {
          "name": "_stageNumber",
          "type": "uint256"
        }
      ],
      "payable": false,
      "stateMutability": "nonpayable",
      "type": "function"
    },
    {
      "constant": false,
      "inputs": [
        {
          "name": "_lastFileNumber",
          "type": "uint256"
        },
        {
          "name": "_lastStageNumber",
          "type": "uint256"
        },
        {
          "name": "_role",
          "type": "uint8"
        },
        {
          "name": "_opeate",
          "type": "uint8"
        },
        {
          "name": "_fileName",
          "type": "string"
        },
        {
          "name": "_fileType",
          "type": "string"
        },
        {
          "name": "_fileSize",
          "type": "uint256"
        },
        {
          "name": "_data",
          "type": "string"
        }
      ],
      "name": "Edit",
      "outputs": [],
      "payable": false,
      "stateMutability": "nonpayable",
      "type": "function"
    },
    {
      "constant": true,
      "inputs": [
        {
          "name": "_fileNumber",
          "type": "uint256"
        },
        {
          "name": "__stageNumber",
          "type": "uint256"
        }
      ],
      "name": "getData",
      "outputs": [
        {
          "name": "_data",
          "type": "string"
        }
      ],
      "payable": false,
      "stateMutability": "view",
      "type": "function"
    }
  ],
  "bytecode": "0x6080604052600060025534801561001557600080fd5b5061148d806100256000396000f300608060405260043610610078576000357c0100000000000000000000000000000000000000000000000000000000900463ffffffff1680634e4fe3061461007d5780637fe6619d1461012d57806390957ba214610158578063921c67b414610285578063f8c2d8db14610399578063feb2e22a146104d1575b600080fd5b34801561008957600080fd5b506100b260048036038101908080359060200190929190803590602001909291905050506105eb565b6040518080602001828103825283818151815260200191508051906020019080838360005b838110156100f25780820151818401526020810190506100d7565b50505050905090810190601f16801561011f5780820380516001836020036101000a031916815260200191505b509250505060405180910390f35b34801561013957600080fd5b506101426106b5565b6040518082815260200191505060405180910390f35b34801561016457600080fd5b506102836004803603810190808035906020019092919080359060200190929190803560ff169060200190929190803560ff169060200190929190803590602001908201803590602001908080601f0160208091040260200160405190810160405280939291908181526020018383808284378201915050505050509192919290803590602001908201803590602001908080601f016020809104026020016040519081016040528093929190818152602001838380828437820191505050505050919291929080359060200190929190803590602001908201803590602001908080601f01602080910402602001604051908101604052809392919081815260200183838082843782019150505050505091929192905050506106bb565b005b34801561029157600080fd5b506102ba6004803603810190808035906020019092919080359060200190929190505050610be4565b604051808673ffffffffffffffffffffffffffffffffffffffff1673ffffffffffffffffffffffffffffffffffffffff1681526020018560018111156102fc57fe5b60ff16815260200184815260200183600381111561031657fe5b60ff16815260200180602001828103825283818151815260200191508051906020019080838360005b8381101561035a57808201518184015260208101905061033f565b50505050905090810190601f1680156103875780820380516001836020036101000a031916815260200191505b50965050505050505060405180910390f35b3480156103a557600080fd5b506103ce6004803603810190808035906020019092919080359060200190929190505050610cf9565b604051808781526020018060200180602001868152602001858152602001848152602001838103835288818151815260200191508051906020019080838360005b8381101561042a57808201518184015260208101905061040f565b50505050905090810190601f1680156104575780820380516001836020036101000a031916815260200191505b50838103825287818151815260200191508051906020019080838360005b83811015610490578082015181840152602081019050610475565b50505050905090810190601f1680156104bd5780820380516001836020036101000a031916815260200191505b509850505050505050505060405180910390f35b3480156104dd57600080fd5b506105ce600480360381019080803590602001908201803590602001908080601f0160208091040260200160405190810160405280939291908181526020018383808284378201915050505050509192919290803590602001908201803590602001908080601f016020809104026020016040519081016040528093929190818152602001838380828437820191505050505050919291929080359060200190929190803590602001908201803590602001908080601f0160208091040260200160405190810160405280939291908181526020018383808284378201915050505050509192919290505050610e72565b604051808381526020018281526020019250505060405180910390f35b60606001600084815260200190815260200160002060008381526020019081526020016000206003018054600181600116156101000203166002900480601f0160208091040260200160405190810160405280929190818152602001828054600181600116156101000203166002900480156106a85780601f1061067d576101008083540402835291602001916106a8565b820191906000526020600020905b81548152906001019060200180831161068b57829003601f168201915b5050505050905092915050565b60025481565b6106c36112e0565b6000891180156106d35750600088115b1515610747576040517f08c379a000000000000000000000000000000000000000000000000000000000815260040180806020018281038252601c8152602001807f46696c65206d7573742068617665206265656e20637265617465642e0000000081525060200191505060405180910390fd5b886000808b8152602001908152602001600020600060018b01815260200190815260200160002060000181905550846000808b8152602001908152602001600020600060018b01815260200190815260200160002060010190805190602001906107b292919061133c565b50836000808b8152602001908152602001600020600060018b01815260200190815260200160002060020190805190602001906107f092919061133c565b50826000808b8152602001908152602001600020600060018b01815260200190815260200160002060030181905550600188016000808b8152602001908152602001600020600060018b0181526020019081526020016000206004018190555060016000808b815260200190815260200160002060008a815260200190815260200160002060050154016000808b8152602001908152602001600020600060018b0181526020019081526020016000206005018190555060a0604051908101604052803373ffffffffffffffffffffffffffffffffffffffff1681526020018860018111156108db57fe5b81526020014281526020018760038111156108f257fe5b815260200183815250905080600160008b8152602001908152602001600020600060018b01815260200190815260200160002060008201518160000160006101000a81548173ffffffffffffffffffffffffffffffffffffffff021916908373ffffffffffffffffffffffffffffffffffffffff16021790555060208201518160000160146101000a81548160ff0219169083600181111561099057fe5b02179055506040820151816001015560608201518160020160006101000a81548160ff021916908360038111156109c357fe5b021790555060808201518160030190805190602001906109e49291906113bc565b509050507f0c0f176935ae15b0adfa9b20392a924e828fc218995c4dabcef4c6ed21a858108960018a01338a8a8a8a8a8a604051808a81526020018981526020018873ffffffffffffffffffffffffffffffffffffffff1673ffffffffffffffffffffffffffffffffffffffff168152602001876001811115610a6357fe5b60ff168152602001866003811115610a7757fe5b60ff168152602001806020018060200185815260200180602001848103845288818151815260200191508051906020019080838360005b83811015610ac9578082015181840152602081019050610aae565b50505050905090810190601f168015610af65780820380516001836020036101000a031916815260200191505b50848103835287818151815260200191508051906020019080838360005b83811015610b2f578082015181840152602081019050610b14565b50505050905090810190601f168015610b5c5780820380516001836020036101000a031916815260200191505b50848103825285818151815260200191508051906020019080838360005b83811015610b95578082015181840152602081019050610b7a565b50505050905090810190601f168015610bc25780820380516001836020036101000a031916815260200191505b509c5050505050505050505050505060405180910390a1505050505050505050565b6001602052816000526040600020602052806000526040600020600091509150508060000160009054906101000a900473ffffffffffffffffffffffffffffffffffffffff16908060000160149054906101000a900460ff16908060010154908060020160009054906101000a900460ff1690806003018054600181600116156101000203166002900480601f016020809104026020016040519081016040528092919081815260200182805460018160011615610100020316600290048015610cef5780601f10610cc457610100808354040283529160200191610cef565b820191906000526020600020905b815481529060010190602001808311610cd257829003601f168201915b5050505050905085565b600060205281600052604060002060205280600052604060002060009150915050806000015490806001018054600181600116156101000203166002900480601f016020809104026020016040519081016040528092919081815260200182805460018160011615610100020316600290048015610db85780601f10610d8d57610100808354040283529160200191610db8565b820191906000526020600020905b815481529060010190602001808311610d9b57829003601f168201915b505050505090806002018054600181600116156101000203166002900480601f016020809104026020016040519081016040528092919081815260200182805460018160011615610100020316600290048015610e565780601f10610e2b57610100808354040283529160200191610e56565b820191906000526020600020905b815481529060010190602001808311610e3957829003601f168201915b5050505050908060030154908060040154908060050154905086565b600080610e7d6112e0565b60026000815480929190600101919050555060a0604051908101604052803373ffffffffffffffffffffffffffffffffffffffff16815260200160006001811115610ec457fe5b815260200142815260200160006003811115610edc57fe5b81526020018581525090506002546000806002548152602001908152602001600020600060018152602001908152602001600020600001819055508660008060025481526020019081526020016000206000600181526020019081526020016000206001019080519060200190610f5492919061133c565b508560008060025481526020019081526020016000206000600181526020019081526020016000206002019080519060200190610f9292919061133c565b5084600080600254815260200190815260200160002060006001815260200190815260200160002060030181905550600160008060025481526020019081526020016000206000600181526020019081526020016000206004018190555060016000806002548152602001908152602001600020600060018152602001908152602001600020600501819055508060016000600254815260200190815260200160002060006001815260200190815260200160002060008201518160000160006101000a81548173ffffffffffffffffffffffffffffffffffffffff021916908373ffffffffffffffffffffffffffffffffffffffff16021790555060208201518160000160146101000a81548160ff021916908360018111156110b257fe5b02179055506040820151816001015560608201518160020160006101000a81548160ff021916908360038111156110e557fe5b021790555060808201518160030190805190602001906111069291906113bc565b509050506002549250600191507f6f6a95e189a244a3fa32ef93067004869248adc742ce1cbbc6b1fcfa12dad5e9600180338a8a8a8a604051808881526020018781526020018673ffffffffffffffffffffffffffffffffffffffff1673ffffffffffffffffffffffffffffffffffffffff168152602001806020018060200185815260200180602001848103845288818151815260200191508051906020019080838360005b838110156111c85780820151818401526020810190506111ad565b50505050905090810190601f1680156111f55780820380516001836020036101000a031916815260200191505b50848103835287818151815260200191508051906020019080838360005b8381101561122e578082015181840152602081019050611213565b50505050905090810190601f16801561125b5780820380516001836020036101000a031916815260200191505b50848103825285818151815260200191508051906020019080838360005b83811015611294578082015181840152602081019050611279565b50505050905090810190601f1680156112c15780820380516001836020036101000a031916815260200191505b509a505050505050505050505060405180910390a15094509492505050565b60a060405190810160405280600073ffffffffffffffffffffffffffffffffffffffff1681526020016000600181111561131657fe5b8152602001600081526020016000600381111561132f57fe5b8152602001606081525090565b828054600181600116156101000203166002900490600052602060002090601f016020900481019282601f1061137d57805160ff19168380011785556113ab565b828001600101855582156113ab579182015b828111156113aa57825182559160200191906001019061138f565b5b5090506113b8919061143c565b5090565b828054600181600116156101000203166002900490600052602060002090601f016020900481019282601f106113fd57805160ff191683800117855561142b565b8280016001018555821561142b579182015b8281111561142a57825182559160200191906001019061140f565b5b509050611438919061143c565b5090565b61145e91905b8082111561145a576000816000905550600101611442565b5090565b905600a165627a7a723058200fc3417fcc60688a0e8832e92cde00b21cbd51dcd5d02d9dbe1051288869f7b50029",
  "source": "pragma solidity ^0.4.24;\r\n\r\ncontract Provenance {\r\n    // 文件操作类型：分别代表创建0、修改1、转让2、销毁3操作\r\n    enum Operation {create, modify, transfer, destroy}\r\n\r\n    // 操作用户身份：创建者0、修改者1\r\n    enum Role {creator, editor}\r\n\r\n    // 文件操作结构\r\n    struct FileOperation {\r\n        address operator; // 操作者\r\n        Role role; // 操作者身份\r\n        uint256 operateTime; // 操作时间\r\n        Operation opeate; // 操作类型\r\n        string data; // 交易的数据字段\r\n    }\r\n\r\n    // 文件结构\r\n    struct File {\r\n        uint256 fileID; // 文件编号\r\n        string fileName; // 文件名（不能重名）\r\n        string fileType; // 文件类型\r\n        uint256 fileSize; // 文件大小\r\n        uint256 stageNumber; // 阶段编号\r\n        uint256 stageCount; // 阶段数量\r\n    }\r\n\r\n    mapping(uint256 => mapping(uint256 => File)) public files; // 所有文件（ID-阶段编号-文件结构）\r\n    mapping(uint256 => mapping(uint256 => FileOperation)) public stages; // 所有阶段（ID-阶段编号-操作结构）\r\n    uint256 public fileNumber = 0; // 文件在集合中的索引\r\n\r\n    event eventCreate (uint256 _fileNumber, uint256 _stageNumber, address _creator, string _fileName, string _fileType, uint256 _fileSize, string _data); // 创建通知事件\r\n    event eventEdit (uint256 _fileNumber, uint256 _stageNumber, address __editor, Role _role, Operation _opeate, string _fileName, string _fileType, uint256 _fileSize, string _data); // 编辑通知事件\r\n\r\n    function Create(\r\n        string memory _fileName,\r\n        string memory _fileType,\r\n        uint256 _fileSize,\r\n        string memory _data\r\n    ) public\r\n    returns (uint256 _fileNumber, uint256 _stageNumber) {\r\n        // 文件编号从1开始\r\n        fileNumber++;\r\n        FileOperation memory _fileOperation = FileOperation({\r\n            operator : msg.sender,\r\n            role : Role.creator,\r\n            operateTime : now,\r\n            opeate : Operation.create,\r\n            data : _data\r\n            });\r\n        // 文件1的第一阶段属性\r\n        files[fileNumber][1].fileID = fileNumber;\r\n        files[fileNumber][1].fileName = _fileName;\r\n        files[fileNumber][1].fileType = _fileType;\r\n        files[fileNumber][1].fileSize = _fileSize;\r\n        files[fileNumber][1].stageNumber = 1;\r\n        files[fileNumber][1].stageCount = 1;\r\n\r\n        stages[fileNumber][1] = _fileOperation;\r\n\r\n        _fileNumber = fileNumber;\r\n        _stageNumber = 1;\r\n        // 通知客户端\r\n        emit eventCreate(1, 1, msg.sender, _fileName, _fileType, _fileSize, _data);\r\n    }\r\n\r\n    function Edit(\r\n        uint256 _lastFileNumber,\r\n        uint256 _lastStageNumber,\r\n        Role _role,\r\n        Operation _opeate,\r\n        string memory _fileName,\r\n        string memory _fileType,\r\n        uint256 _fileSize,\r\n        string memory _data\r\n    ) public {\r\n        require(\r\n            _lastFileNumber > 0 && _lastStageNumber > 0,\r\n            \"File must have been created.\"\r\n        );\r\n\r\n        //        require(\r\n        //            files[_lastFileNumber][_lastStageNumber].fileID != 0 && files[_lastFileNumber][_lastStageNumber + 1].fileID == 0,\r\n        //            \"Incorrect file stage number.\"\r\n        //        );\r\n\r\n        // 文件_lastFileNumber的第_lastStageNumber+1阶段属性\r\n        files[_lastFileNumber][_lastStageNumber + 1].fileID = _lastFileNumber;\r\n        files[_lastFileNumber][_lastStageNumber + 1].fileName = _fileName;\r\n        files[_lastFileNumber][_lastStageNumber + 1].fileType = _fileType;\r\n        files[_lastFileNumber][_lastStageNumber + 1].fileSize = _fileSize;\r\n        files[_lastFileNumber][_lastStageNumber + 1].stageNumber = _lastStageNumber + 1;\r\n        files[_lastFileNumber][_lastStageNumber + 1].stageCount = files[_lastFileNumber][_lastStageNumber].stageCount + 1;\r\n        FileOperation memory _fileOperation = FileOperation({\r\n            operator : msg.sender,\r\n            role : _role,\r\n            operateTime : now,\r\n            opeate : _opeate,\r\n            data : _data\r\n            });\r\n        stages[_lastFileNumber][_lastStageNumber + 1] = _fileOperation;\r\n\r\n        //        _fileNumber = _lastFileNumber;\r\n        //        _stageNumber = _lastStageNumber + 1;\r\n\r\n        // 通知客户端\r\n        emit eventEdit(_lastFileNumber, _lastStageNumber + 1, msg.sender, _role, _opeate, _fileName, _fileType, _fileSize, _data);\r\n    }\r\n\r\n    function getData(\r\n        uint256 _fileNumber,\r\n        uint256 __stageNumber\r\n    ) public view\r\n    returns (string _data) {\r\n        _data = stages[_fileNumber][__stageNumber].data;\r\n    }\r\n}",
  "sourcePath": "D:/java/IdeaProjects/ESP4/src/main/web/contracts/Provenance.sol",
  "compiler": {
    "name": "solc",
    "version": "0.4.24+commit.e67f0147.Emscripten.clang"
  },
  "schemaVersion": "3.0.22",
  "updatedAt": "2020-10-18T09:47:34.409Z",
  "networkType": "ethereum",
  "devdoc": {
    "methods": {}
  },
  "userdoc": {
    "methods": {}
  }
}